:0400000086EF01F096
:0600080043824CED05F0FF
:100018004380D8CF65F0E8CF66F0E0CF67F0FACF3D
:1000280068F0FBCF69F0E9CF6AF0EACF6BF0E1CF77
:100038006CF0E2CF6DF0D9CF6EF0DACF6FF0F3CF7E
:1000480070F0F4CF71F0F6CF72F0F7CF73F0F8CF0D
:1000580074F0F5CF75F043C076F044C077F045C032
:1000680078F046C079F0F2A421D1F294670ED76EE9
:100078006A0ED66EC80E88EC09F0A1C01DF0A2C0A9
:100088001EF0A3C01FF0A4C020F0E80E216E030EDE
:10009800226E000E236E000E246E6DEC07F01DC05C
:1000A8003EF01EC03FF01FC040F020C041F0A1C08C
:1000B8001DF0A2C01EF0A3C01FF0A4C020F0E80EDF
:1000C800216E030E226E000E236E000E246EA3EC2A
:1000D80008F01DC02EF01EC02FF01FC030F020C049
:1000E80031F02EC01DF02FC01EF030C01FF031C0FF
:1000F80020F0640E216E000E226E000E236E000E9C
:10010800246E6DEC07F01DC03AF01EC03BF01FC016
:100118003CF020C03DF02EC01DF02FC01EF030C0B6
:100128001FF031C020F0640E216E000E226E000E0A
:10013800236E000E246EA3EC08F01DC02EF01EC026
:100148002FF01FC030F020C031F02EC01DF02FC09E
:100158001EF030C01FF031C020F00A0E216E000ED4
:10016800226E000E236E000E246E6DEC07F01DC08B
:1001780036F01EC037F01FC038F020C039F02EC04E
:100188001DF02FC01EF030C01FF031C020F00A0E45
:10019800216E000E226E000E236E000E246EA3EC5C
:1001A80008F01DC032F01EC033F01FC034F020C06C
:1001B80035F0ACA2FED7410EAD6EACA2FED73A50D8
:1001C800300FAD6E3A50300F69EC09F0ACA2FED793
:1001D8003650300FAD6E3650300F69EC09F0ACA2D6
:1001E800FED72C0EAD6E2C0E69EC09F0ACA2FED732
:1001F8003250300FAD6E3250300F69EC09F0ACA2BE
:10020800FED7430EAD6E430E69EC09F0ACA2FED7E3
:100218003B0EAD6E8B0E88EC09F042C01DF01E6AD5
:10022800000E206E0A0E1F6EAFEC07F01DC02AF0FC
:100238001EC02BF0000E2BBEFF0E2C6E2D6E42C082
:100248001DF01E6A000E206E0A0E1F6E33EC08F0B9
:100258001DC026F01EC027F0000E27BEFF0E286E18
:10026800296EACA2FED7440EAD6EACA2FED72A50C2
:10027800300FAD6E2A50300F69EC09F0ACA2FED7F2
:100288002650300FAD6E2650300F69EC09F0ACA245
:10029800FED7430EAD6E430E69EC09F0ACA2FED753
:1002A8000D0EAD6EACA2FED70A0EAD6E79C046F04B
:1002B80078C045F077C044F076C043F075C0F5FFCC
:1002C80074C0F8FF73C0F7FF72C0F6FF71C0F4FF87
:1002D80070C0F3FF6FC0DAFF6EC0D9FF6DC0E2FFD8
:1002E8006CC0E1FF6BC0EAFF6AC0E9FF69C0FBFFB1
:1002F80068C0FAFF67C0E0FF66C0E8FF65C0D8FFC6
:08030800439010001DEF0AF004
:1008000000446573656A616461203D200041747530
:07081000616C203D20000097
:100818009280060E936E94929494949C948EF19E7A
:10082800AC94AC98AC8AAB8EB886000EB06E400E15
:10083800AF6E670ED76E6A0ED66E960ED56EF294B0
:10084800F194F28AF092F198F088F08EF090F19A93
:10085800F086F08CD08EF28EF28C0E0EC16E010EE8
:10086800C26E950EC06E100EE82EFED700D0280E70
:10087800D5EC06F0010E47EC09F00D0E0001976F5C
:10088800FB0EE82EFED7972FFCD700D00C0E47ECB6
:1008980009F0800E47EC09F0010E00017B6F080E8D
:1008A8007C6F02EC0AF0C00E47EC09F00D0E000157
:1008B8007B6F080E7C6F02EC0AF01DEC06F0000E50
:1008C8000001AA6F000EAB6F000EAC6F000EAD6F8B
:1008D800000EA56F000EA66F000EA76F000EA86F82
:1008E800000EA06F000E9F6FA0BF06D0A05126E19A
:1008F8000A0E9F5DD8B022D0C282C2B2FED7C350C2
:10090800C4CF97F00001986B97C098F0976B972722
:10091800000E982397C0A5F098C0A6F0000EA6BFB9
:10092800FF0EA76FA86FA551AA27A651AB23A75101
:10093800AC23A851AD239F4BA02BD6D7AAC086F0D5
:10094800ABC087F0ACC088F0ADC089F00A0E8A6FE2
:10095800000E8B6F000E8C6F000E8D6F2BEC07F066
:1009680086C0AAF087C0ABF088C0ACF089C0ADF0F3
:10097800AAC07AF0ABC07BF0ACC07CF0ADC07DF013
:10098800880E00017E6F130E7F6F000E806F000EC1
:10099800816FD6EC08F07AC086F07BC087F07CC007
:1009A80088F07DC089F0FF0E00018A6F030E8B6FFF
:1009B800000E8C6F000E8D6F2BEC07F086C0A1F037
:1009C80087C0A2F088C0A3F089C0A4F0A1C086F0B7
:1009D800A2C087F0A3C088F0A4C089F00A0E000165
:1009E8008A6F000E8B6F000E8C6F000E8D6F2BECD4
:1009F80007F0010E00018625976F000E8721986F7A
:100A0800000E8821996F000E89219A6F42C09BF0D1
:100A18009C6B9D6B9E6B97519B5D98519C5999510E
:100A28009D599A519E59D8A002D082828294A1C021
:100A380086F0A2C087F0A3C088F0A4C089F00A0E8F
:100A48008A6F000E8B6F000E8C6F000E8D6F2BEC73
:100A580007F0010E00018625976F000E8721986F19
:100A6800000E8821996F000E89219A6F42C09BF071
:100A78009C6B9D6B9E6B97519B5D98519C599951AE
:100A88009D599A519E59D8B01AD78292828417D705
:100A98000600FACF0BF0FBCF0CF0E9CF0DF0EACF50
:100AA8000EF0E1CF0FF0E2CF10F0D9CF11F0DACF8E
:100AB80012F0F3CF13F0F4CF14F0F6CF15F0F7CF10
:100AC80016F0F8CF17F0F5CF18F043C019F044C06E
:100AD8001AF045C01BF046C01CF0F0A040D0410EF3
:100AE80042603DD0040E0A6ECF0E096E020EE82E4B
:100AF800FED7092EFCD70A2EFAD7422A8B0EC6EC4F
:100B080009F042C001F0026A000E046E0A0E036E7C
:100B1800F1EC07F001C02AF002C02BF0000E2BBE4A
:100B2800FF0E2C6E2D6E42C001F0026A000E046E9C
:100B38000A0E036E6BEC08F001C026F002C027F025
:100B4800000E27BEFF0E286E296E2A50300FA7EC24
:100B580009F02650300FA7EC09F0F09044D0F0A22D
:100B680042D042500001A95DD8B03DD0040E0A6EB3
:100B7800CF0E096E020EE82EFED7092EFCD70A2EDC
:100B8800FAD74204426E8B0EC6EC09F042C001F05F
:100B9800026A000E046E0A0E036EF1EC07F001C043
:100BA8002AF002C02BF0000E2BBEFF0E2C6E2D6E0D
:100BB80042C001F0026A000E046E0A0E036E6BEC6E
:100BC80008F001C026F002C027F0000E27BEFF0E75
:100BD800286E296E2A50300FA7EC09F02650300FE6
:100BE800A7EC09F0F0921CC046F01BC045F01AC0F3
:100BF80044F019C043F018C0F5FF17C0F8FF16C03D
:100C0800F7FF15C0F6FF14C0F4FF13C0F3FF12C0BE
:100C1800DAFF11C0D9FF10C0E2FF0FC0E1FF0EC01C
:100C2800EAFF0DC0E9FF0CC0FBFF0BC0FAFF4392BF
:100C38001100000E0001AA6F000EAB6F000EAC6F22
:100C4800000EAD6F000EA56F000EA66F000EA76F09
:100C5800000EA86F000E966F000E956F96BF06D017
:100C6800965126E10A0E955DD8B022D0C282C2B252
:100C7800FED7C350C4CF93F00001946B93C094F097
:100C8800936B9327000E942393C0A5F094C0A6F00D
:100C9800000EA6BFFF0EA76FA86FA551AA27A651E1
:100CA800AB23A751AC23A851AD23954B962BD6D790
:100CB800AAC086F0ABC087F0ACC088F0ADC089F0A0
:100CC8000A0E8A6F000E8B6F000E8C6F000E8D6FF0
:100CD8002BEC07F086C0AAF087C0ABF088C0ACF058
:100CE80089C0ADF0AAC07AF0ABC07BF0ACC07CF094
:100CF800ADC07DF0880E00017E6F130E7F6F000E71
:100D0800806F000E816FD6EC08F07AC086F07BC049
:100D180087F07CC088F07DC089F0FF0E00018A6FE3
:100D2800030E8B6F000E8C6F000E8D6F2BEC07F08F
:100D380086C0A1F087C0A2F088C0A3F089C0A4F043
:100D4800A1C086F0A2C087F0A3C088F0A4C089F033
:100D58000A0E00018A6F000E8B6F000E8C6F000E5A
:100D68008D6F2BEC07F000018651A96FA9C042F0E6
:100D7800000EAA6F000EAB6F000EAC6F000EAD6FC9
:100D8800000EA56F000EA66F000EA76F000EA86FCD
:100D9800000EA16F000EA26F000EA36F000EA46FCD
:100DA800120000017B6F0F0E83160F0E9516969496
:100DB800969096928D948D908D923CEC0AF0300E20
:100DC80047EC09F032EC0AF032EC0AF0300E47EC4E
:100DD80009F032EC0AF032EC0AF0320E47EC09F076
:100DE800E5EC09F00009D8A4FBD7E5EC09F0000907
:100DF800D8A4FBD700017B5147EC09F0E5EC09F0DA
:100E08000009D8A4FBD7080E47EC09F0E5EC09F077
:100E18000009D8A4FBD70F0E47EC09F0E5EC09F060
:100E28000009D8A4FBD7010E47EC09F0E5EC09F05E
:100E38000009D8A4FBD7040E47EC09F0E5EC09F04B
:100E48000009D8A4FBD7800E02EC09F01200000EAE
:100E580000018E6F000E8F6F000E906F000E916F65
:100E68008A518B118C118D11D8B42AD0010E926F32
:100E780006D0D8908A378B378C378D37922B8DAF29
:100E8800F8D7D8908E378F37903791378A51865D4B
:100E98008B5187598C5188598D518959D8A009D0BF
:100EA8008A51865F8B51875B8C51885B8D51895B3A
:100EB8008E81D8908D338C338B338A33922FE1D740
:100EC8008EC086F08FC087F090C088F091C089F0FE
:100ED8001200000E0001606F000E616F000E626F5D
:100EE800000E636F2150221023102410D8B42AD08A
:100EF800010E646F06D0D890213622362336243668
:100F0800642B24AEF8D7D8906037613762376337DF
:100F180021501D5C22501E5823501F582450205821
:100F2800D8A009D021501D5E22501E5A23501F5AA6
:100F38002450205A6081D890243223322232213220
:100F4800642FE1D760C01DF061C01EF062C01FF0C1
:100F580063C020F01200000E226E20AE06D01F6C77
:100F6800201ED8B0202A010E226E1EAE06D01D6C9F
:100F78001E1ED8B01E2A010E221A000E246E000E64
:100F8800236E1F502010D8B41CD0010E216E04D03F
:100F9800D8901F362036212A20AEFAD7D89023368B
:100FA80024361F501D5C20501E58D8A005D01F5055
:100FB8001D5E20501E5A2380D89020321F32212EC9
:100FC800EDD72250D8B404D0236C241ED8B0242ADC
:100FD80023C01DF024C01EF01200000E066E04AEE1
:100FE80006D0036C041ED8B0042A010E066E02AEA9
:100FF80006D0016C021ED8B0022A010E061A000E95
:10100800086E000E076E03500410D8B41CD0010EF1
:10101800056E04D0D89003360436052A04AEFAD7F4
:10102800D890073608360350015C04500258D8A0FF
:1010380005D00350015E0450025A0780D89004324C
:101048000332052EEDD70650D8B404D0076C081E1D
:10105800D8B0082A07C001F008C002F01200000E3C
:10106800226E1EAE06D01D6C1E1ED8B01E2A010EA2
:10107800226E20AE04D01F6C201ED8B0202A1F502C
:101088002010D8B418D0010E216E04D0D8901F3685
:101098002036212A20AEFAD71F501D5C20501E583A
:1010A800D8A004D01F501D5E20501E5AD890203260
:1010B8001F32212EF1D72250D8B404D01D6C1E1E29
:1010C800D8B01E2A1DC01DF01EC01EF01200000E52
:1010D800066E02AE06D0016C021ED8B0022A010EBE
:1010E800066E04AE04D0036C041ED8B0042A035064
:1010F8000410D8B418D0010E056E04D0D890033669
:101108000436052A04AEFAD70350015C045002588D
:10111800D8A004D00350015E0450025AD89004327B
:101128000332052EF1D70650D8B404D0016C021E44
:10113800D8B0022A01C001F002C002F0120021500A
:10114800221023102410D8B424D0010E256E06D006
:10115800D8902136223623362436252A24AEF8D7CD
:1011680021501D5C22501E5823501F5824502058CF
:10117800D8A008D021501D5E22501E5A23501F5A55
:101188002450205AD8902432233222322132252E5C
:10119800E7D71DC01DF01EC01EF01FC01FF020C0E5
:1011A80020F01200000E0001826F000E836F000E07
:1011B800846F000E856F7AA108D07E5182277F51F7
:1011C80083238051842381518523D8907E377F37AC
:1011D80080378137D8907D337C337B337A337A51AB
:1011E8007B117C117D11D8A4E6D782C07AF083C028
:1011F8007BF084C07CF085C07DF0120000017A6F1E
:101208000F0E95160F0E831600017A518009F00B08
:1012180083128D948D9046EC0AF08D8246EC0AF08C
:101228008D920F0E831600017A39F00BF00B8312A2
:1012380046EC0AF08D8246EC0AF08D92F00E95127B
:10124800120000017A6F0F0E95160F0E831600011B
:101258007A51F00B83128D808D9446EC0AF08D82C2
:1012680046EC0AF08D920F0E831600017A39F00BC6
:10127800F00B831246EC0AF08D8246EC0AF08D9250
:10128800F00E9512120000017A6F0F0E95160F0ED0
:10129800831600017A51F00B83128D948D9046ECE1
:1012A8000AF08D8246EC0AF08D920F0E831600012B
:1012B8007A39F00BF00B831246EC0AF08D8246EC7B
:1012C8000AF08D92F00E951212001D6E0F0E9516F3
:1012D8000F0E83161D50F00B83128D808D944BECEE
:1012E8000AF08D824BEC0AF08D920F0E83161D3892
:1012F800F00BF00B83124BEC0AF08D824BEC0AF0EA
:101308008D92F00E951212001D6E0F0E95160F0E8F
:1013180083161D50F00B83128D948D904BEC0AF0C0
:101328008D824BEC0AF08D920F0E83161D38F00B50
:10133800F00B83124BEC0AF08D824BEC0AF08D9285
:10134800F00E95121200016E0F0E95160F0E8316F1
:101358000150F00B83128D808D9450EC0AF08D8231
:1013680050EC0AF08D920F0E83160138F00BF00B3B
:10137800831250EC0AF08D8250EC0AF08D92F00E38
:1013880095121200016E0F0E95160F0E831601505E
:10139800F00B83128D948D9050EC0AF08D8250ECF6
:1013A8000AF08D920F0E83160138F00BF00B8312A2
:1013B80050EC0AF08D8250EC0AF08D92F00E9512E6
:1013C80012008D848D9046EC0AF08D8246EC0AF06E
:1013D80083AE0AD08D9246EC0AF08D8246EC0AF074
:1013E8008D928D94010E12008D9246EC0AF08D823A
:1013F80046EC0AF08D928D94000E120010D0E5ECA8
:1014080009F00009D8A4FBD77BC0F6FF7CC0F7FF22
:101418000800F55025EC09F000017B4B7C2B7BC0C4
:10142800F6FF7CC0F7FF0800F5500009D8B4120099
:10143800E6D700EEA1F00D0EEE6AE806FDE100EE3B
:1014480026F01D0EEE6AE806FDE143904392000E79
:10145800F86E080EF76E00010CEF04F0210E000183
:101468007A6F760EE82EFED77A2FFCD700F012009E
:10147800620E00017A6F650EE82EFED77A2FFCD730
:1014880000D01200210EE82EFED700F01200210E27
:10149800E82EFED700F01200210EE82EFED700F04D
:0214A800120030
:020000040020DA
:08000000FFFFFFFFFFFFFFFF00
:020000040030CA
:0E000000000C1F1EFF8301FF0FC00FE00F401A
:00000001FF
